:100000006F00A03A000000004A0100004C0100000F
:1000100000000000000000000000000000000000E0
:1000200000000000000000000000000000000000D0
:10003000A803000000000000A8030000000000006A
:10004000A8030000A8030000A8030000A803000004
:10005000A8030000A8030000A8030000A8030000F4
:10006000A8030000A8030000A8030000A8030000E4
:10007000A8030000A8030000A8030000A8030000D4
:10008000A8030000A8030000A8030000A8030000C4
:10009000A8030000A8030000A8030000000000005F
:1000A000511126C022C206C4828282441244A24058
:1000B000310182802A86014593F6150091C232955E
:1000C00085810606F5F9828000000000634E050276
:1000D00063C305042E86AA857D5515C285466378BF
:1000E000B6006356C00006068606E36CB6FE014500
:1000F00063E4C500918D558D85820582F5FA828075
:100100008682C93F2E8582823305A04063D70500D1
:10011000B305B040C1B7B305B0408682653F330533
:10012000A0408282868263C70500634905005D376F
:100130002E858282B305B040E35B05FE3305A04007
:10014000513F3305B0408282000001A001A0EFF2D0
:100150003FF511118545116595218545130500026F
:10016000B129930700022310F10037150140E14740
:100170003EC48A858D47130505403EC24D2C8967D4
:1001800037440140938707583EC66C00B707080004
:10019000130504803ECA02C8231C01003D29854581
:1001A00013050480092B710109B7EFF27FEF374483
:1001B0000140AA84930704803E8593050008392BEB
:1001C000B74701409387078065D993950401C181A2
:1001D00013050480FD29D1BDEFF29FEC2A840305AD
:1001E000040011E1D9B50504C937D5BFEFF25FEBC3
:1001F0000545112E370400009922FD21893F130582
:10020000C475D93F1305007D212BD5BFEFF25FE9FF
:10021000371402401C403707FFFC611193E71700B9
:100220001CC05C404145F98F5CC01C403707F7FE9D
:100230007D17F98F1CC01C403707FCFF7D17F98F15
:100240001CC05C4041777D17F98F5CC0B7079F00E9
:100250001CC47D2C1C4C3706020093E707021CCC03
:10026000B717014003A70740938607401377F7F0BD
:1002700023A0E74003A707401367070823A0E74030
:1002800089479CCA02C002C21C4C37070140A166C4
:1002900093E717001CCC5C43D58F5CC31C404167BF
:1002A000B7160240D98F1CC009679C42F18F3EC22D
:1002B000824785073EC0924781E78247E397E7FE82
:1002C000B71702409C431397E7006358070685471A
:1002D0003EC2124785476310F706B727024098438E
:1002E000C176FD16719B98C398431367170098C396
:1002F000B7170240D843D8C3D843758FD8C3D84363
:10030000C166558FD8C39843B7060001558F98C36F
:10031000984393166700E3DD06FED843B716024004
:10032000719BD8C3D84313672700D8C32147DC4249
:10033000B18BE39EE7FE21018DBB02C259BFEFF2F4
:100340003FD6371702405C43370400209146B18BFB
:10035000130404016385D700A1466381D704B7372E
:100360006E01938707601CC0B7160240DC4208404C
:10037000918313F7F700B707002093870700BA9718
:1003800083C50700DC4293F5F50F93F70708335751
:10039000B50099E381332A8718C001BB5C43B77766
:1003A000DC02938707C0C1B701A0970100209381A9
:1003B000E148138181FC1305C076970500209385E1
:1003C00065C417060020130666C763FAC5008322BA
:1003D000050023A0550011059105E3EAC5FE1705A8
:1003E00000201305A5C5938581806377B500232080
:1003F00005001105E36DB5FEB72200009382028867
:10040000739002308D427390428097020000938275
:1004100062BF93E2320073905230EFF03FDF9702F9
:1004200000009382E2DC73901234730020309C450C
:10043000611122C226C013F7070113F3F70001C7A9
:10044000D8413363E30003D605001377F60F29C7BD
:10045000832305000147130480029304800485462A
:10046000B395E600B376B6006392D50293122700E7
:10047000BD46B396560093C6F6FFB3F37600B312AB
:100480005300B3E37200639787064CC90507A14682
:10049000E317D7FC232075001307F00F6378C70418
:1004A00083234500A146130480029304800405477A
:1004B000B312D700337756006394E20213972600F5
:1004C0000117BD45B395E50093C5F5FFB3F375007E
:1004D0003317E300B363770063928702232A550042
:1004E00085064147E395E6FC2322750012448244C9
:1004F00021018280E39C97F80CC949BFE39297FEE3
:1005000023285500F1BFB707002023ACA702828043
:10051000371702401C430E0593F777F05D8D08C333
:100520008280EFF2FFB7371702405C4391462A847E
:10053000B18B6385D700A146638CD706B7376E01B0
:10054000938707601CC0B7160240DC42918313F703
:10055000F700B707002093878702BA9783C5070083
:10056000DC42184093F5F50F93F707083355B700B1
:1005700099E33A85853648C008C448C4B717024095
:10058000DC43AD83FD8B13D737008A07F18BD98FFE
:1005900093F637010D476373D700D1173707002053
:1005A00013074701BA9783C507002D3608C8F5BC65
:1005B0005C43B777DC02938707C069B799C53717E3
:1005C00002401C4F5D8D08CF8280B7170240984FC4
:1005D0001345F5FF798D88CF8280EFF27FAC83568B
:1005E0000501F577FD17F58F83D6650003D7C500A4
:1005F0002111D58F2318F5008356C500FD77938709
:10060000379FF58F83D645002A842EC0D58F83D699
:100610008500D58F83D6A500D58F2316F500835787
:100620004501C207C18393F7F7CF5D8F231AE50019
:100630004800C53DB7470140938707808245631056
:10064000F406C2470357C400139517003E954207AE
:100650000E0541873E958C416355070486059D3CF8
:10066000930540062AC0BD34824793144500930584
:1006700040063E8571348357C400C207C18763D4E6
:1006800007020E059305400613052503A1341D89B5
:10069000C98CC204C18023149400610139B4B247EB
:1006A00055B78A056DBF120593054006130525034E
:1006B00015343D89F1BF81C98357C5000967D98FBA
:1006C0002316F50082800357C500F977FD17F98FCF
:1006D000C5BF93F5F51F2312B500828003550500B1
:1006E0006D8D3335A0008280EFF29F9BB70700200D
:1006F00003A50701B7157A0093850520E13A137524
:10070000F50FB7070020238FA70293175500898F95
:100710008A073E950E05B7070020239EA70271B2F7
:10072000EFF21F9837F400E05C40AA85F99B5CC0AB
:10073000B707002003D5C703B53A08C8232404002F
:100740001C4093E717001CC0B7F700E0D843058BA7
:1007500075DF9843799B98C389BA000048656C6C33
:0C0760006F2020484330350D0A000000D7
:10076C000102030405060708010203040506070835
:10077C00006CDC020204060804080C100810182097
:10078C001020304020406080010203040506070859
:08079C00010203040506070831
:00000001FF
