:100000006F00E06B00000000F2010000F40100004E
:1000100000000000000000000000000000000000E0
:1000200000000000000000000000000000000000D0
:10003000BC06000000000000BC060000000000003C
:10004000BC060000BC060000BC060000BC060000A8
:10005000BC060000BC060000BC060000BC06000098
:10006000BC060000BC060000BC060000BC06000088
:10007000BC060000BC060000BC060000BC06000078
:10008000BC060000BC060000BC060000BC06000068
:10009000BC060000BC060000BC060000000000001A
:1000A000511126C022C206C4828282441244A24058
:1000B000310182802A86014593F6150091C232955E
:1000C00085810606F5F9828000000000634E050276
:1000D00063C305042E86AA857D5515C285466378BF
:1000E000B6006356C00006068606E36CB6FE014500
:1000F00063E4C500918D558D85820582F5FA828075
:100100008682C93F2E8582823305A04063D70500D1
:10011000B305B040C1B7B305B0408682653F330533
:10012000A0408282868263C70500634905005D376F
:100130002E858282B305B040E35B05FE3305A04007
:10014000513F3305B040828200003D432A876373EC
:10015000C3029377F700BDEFADE5937606FF3D8AC6
:10016000BA960CC34CC30CC74CC74107E36BD7FE10
:1001700011E28280B306C3408A0697020000969679
:100180006780A6002307B700A306B7002306B700C1
:10019000A305B7002305B700A304B7002304B700E5
:1001A000A303B7002303B700A302B7002302B700DD
:1001B000A301B7002301B700A300B7002300B700D5
:1001C000828093F5F50F93968500D58D9396050162
:1001D000D58D61B793962700970200009696868288
:1001E000E78086FA9680C1171D8F3E96E374C3F8A8
:1001F000A5B701A001A0EFF2BFEA1301C1FD2AC219
:100200002EC04545854502C402C602C802CA02CCBA
:1002100002CE02D0EF00500A854537052000EF00DE
:10022000900B9146F1440D442C00371501402314E6
:10023000D10026C822C6092B89462C00371501405B
:100240002314D10026C822C60123824712473754FF
:100250000040231EF100930700403ACA231FF1001B
:100260003707FFBF91674C08130504403ACC2310B1
:10027000F1027D23854513050440EF00606A1301F8
:10028000410225B5EFF2DFE1B75700402A84AE8482
:10029000138707403A85B7050200EF00A073B757F0
:1002A0000040138707407DF585453A85412DB70706
:1002B0000300850737570040BE8513050740EF0050
:1002C000C06FB707030037570040850765D5014663
:1002D0009305600A13050740EF00E06CB7070700BD
:1002E0009387270837570040BE8513050740EF0066
:1002F000C06CB707070037570040938727087DD1A8
:10030000A28513050740370407007125130444082C
:10031000B757004013850740A2854525B7570040D1
:1003200065D9A6851385074037040700AD2513045A
:100330004408B7540040A28513850440BD2D75D9EB
:10034000854513850440112D8DB3EFF27FD57111D2
:10035000B7570040AA842E8432C0138707403A85DD
:10036000B7050200852DB75700401387074065F990
:1003700085453A85E123B7070300850737570040D5
:10038000BE8513050740152DB707030037570040FA
:1003900085076DD501469305600A130507402125A1
:1003A000B70707009387270837570040BE85130516
:1003B00007402125B70707003757004093872708D4
:1003C00065D5A68513050740B7040700E923938484
:1003D0004408B757004013850740A685F92BB75747
:1003E000004065D9854513850740B7040300B9234C
:1003F0008504B757004013850740A6857D2BB75766
:10040000004065D905469305600A13850740B70487
:100410000300512B890437550040A685130505407C
:10042000692B75D98247B304F400630A9402B707B5
:1004300003009387070437570040BE851305074024
:10044000AD2BB7070300375700409387070465D5E6
:100450001305074005049923A30FA4FEF9B73754E9
:100460000040130504408145012B854513050440D8
:10047000ED2111011DB9EFF2BFC2A1451305D00254
:100480001135A14513051003F53B05B1EFF25FC12E
:100490006111C122EF00A077716513050520EF00FF
:1004A000E07DB707002083A507013725000013056D
:1004B00045F0EF0030096124AA85372500001305B7
:1004C00045F1EF00300837240000616581451305D0
:1004D000056A15334D378A85194613052003B5354E
:1004E000834651008347410003463100A206DD8E5A
:1004F000834721008345110022065D8E834701005A
:10050000A205C206DD8D4206C205C1864186C185AF
:10051000130544F2EF001003130540061D2775B7BD
:10052000EFF21FB8371402401C403707FFFC61117F
:1005300093E717001CC05C404145F98F5CC01C402C
:100540003707F7FE7D17F98F1CC01C403707FCFFEB
:100550007D17F98F1CC05C4041777D17F98F5CC017
:10056000B7079F001CC445211C4C3706020093E7C7
:1005700007021CCCB717014003A70740938607402A
:100580001377F7F023A0E74003A707401367070896
:1005900023A0E74089479CCA02C002C21C4C37070F
:1005A0000140A16693E717001CCC5C43D58F5CC368
:1005B0001C404167B7160240D98F1CC009679C4296
:1005C000F18F3EC2824785073EC0924781E782474E
:1005D000E397E7FEB71702409C431397E700635881
:1005E000070685473EC2124785476310F706B727BF
:1005F00002409843C176FD16719B98C398431367D8
:10060000170098C3B7170240D843D8C3D843758F93
:10061000D8C3D843C166558FD8C39843B7060001E5
:10062000558F98C3984393166700E3DD06FED843C1
:10063000B7160240719BD8C3D84313672700D8C3AD
:100640002147DC42B18BE39EE7FE2101B9BC02C227
:1006500059BFEFF2FFA4371702405C433704002074
:100660009146B18B130404016385D700A1466381D1
:10067000D704B7376E01938707601CC0B7160240D6
:10068000DC420840918313F7F700B70700209387F7
:100690000700BA9783C50700DC4293F5F50F93F77F
:1006A00007083357B50099E335342A8718C0F5BADF
:1006B0005C43B777DC02938707C0C1B701A09701FD
:1006C00000209381211E138101F6172500001305D8
:1006D000E590970500209385E5921386818063FA63
:1006E000C5008322050023A0550011059105E3EA0A
:1006F000C5FE13858180938581816377B5002320B2
:1007000005001105E36DB5FEB72200009382028853
:10071000739002308D427390428097020000938262
:10072000628E93E2320073905230EFF07FDF9702D7
:1007300000009382E2D57390123473002030B7F733
:10074000FF1F03A5477C82809C45611122C226C001
:1007500013F7070113F3F70001C7D8413363E30030
:1007600003D605001377F60F29C783230500014739
:1007700013048002930480048546B395E600B376A3
:10078000B6006392D50293122700BD46B396560079
:1007900093C6F6FFB3F37600B3125300B3E37200CF
:1007A000639787064CC90507A146E317D7FC2320AA
:1007B00075001307F00F6378C70483234500A14633
:1007C00013048002930480040547B312D7003377E3
:1007D00056006394E202139726000117BD45B395B6
:1007E000E50093C5F5FFB3F375003317E300B3637A
:1007F000770063928702232A550085064147E395D7
:10080000E6FC232275001244824421018280E39C8D
:1008100097F80CC949BFE39297FE23285500F1BF12
:10082000EFF21F881111835445002A8428002EC03E
:10083000E522C246C204C18093F404FCB7450F0010
:10084000938505243685C20436C2C180EFF09F88A7
:10085000458D420541812312A4008357040092462E
:10086000C207C183F99BC207C1832310F4008247EA
:100870009043E1679387076A9315160063E0C70604
:100880003685EFF03F85AA87420541819146637323
:10089000D5009147139507014181231EA40083577A
:1008A0000400024793E717002310F4008357040065
:1008B000835647000356A700C207C183D18E93F722
:1008C00057BFD58F2310F400835687008357C70086
:1008D000D58F2314F40071016FF02FFD824703D5EB
:1008E0006700B167FD176310F502B2953685EFF02A
:1008F0006FFE420541819317450199E31365150089
:10090000A1675D8D59BFB387C5008E07B385C7004A
:100910003685EFF02FFC4205418191675D8DE1BF87
:100920008357050091C593E717002310F5008280D7
:10093000C207C183F99BC207C183C5BF83570500A6
:1009400091C593E707102310F5008280C207C18389
:1009500093F7F7EFC207C183FDB78357050091C531
:1009600093E707202310F5008280C207C18393F725
:10097000F7DFC207C183FDB78357050091C593E731
:1009800007402310F5008280C207C18393F7F7BFA9
:10099000C207C183FDB72318B50082800355050146
:1009A0001375F50F828093F7E50F19C293E71500D1
:1009B000C207C1832318F500828083574501035580
:1009C000850142055D8D6D8D220521810D8D1335CB
:1009D00015008280611102C002C293D7C5012AC2EC
:1009E0003EC08247A205A18199CB9247D1073EC262
:1009F0009247884321016D8D3335A0008280924754
:100A0000C181E107EDB7371702401C430E0593F78C
:100A100077F05D8D08C38280EFF28FE837170240D0
:100A20005C4391462A84B18B6385D700A146638FCE
:100A3000D706B7376E01938707601CC0B716024010
:100A4000DC42918313F7F700B707002093878702F2
:100A5000BA9783C50700DC42184093F5F50F93F76A
:100A600007083355B70081E73A85EFF0AFE648C095
:100A700008C448C4B7170240DC43AD83FD8B13D7CD
:100A800037008A07F18BD98F93F637010D476373CF
:100A9000D700D1173707002013074701BA9783C53E
:100AA0000700EFF02FE308C86FF02FE05C43B77743
:100AB000DC02938707C051B799C5371702401C4F16
:100AC0005D8D08CF8280B7170240984F1345F5FF20
:100AD000798D88CF828099C5371702405C4F5D8D34
:100AE00048CF8280B7170240D84F1345F5FF798D64
:100AF000C8CF8280EFF2CFDA83560501F577FD1774
:100B0000F58F83D6650003D7C5002111D58F231833
:100B1000F5008356C500FD779387379FF58F83D601
:100B200045002A842EC0D58F83D68500D58F83D6E5
:100B3000A500D58F2316F50083574501C207C18351
:100B400093F7F7CF5D8F231AE5004800F135B747DB
:100B500001409387078082456315F406C247035717
:100B6000C400139517003E9542070E0541873E9538
:100B70008C41635A07048605EFF0CFD593054006F4
:100B80002AC0EFF02FD58247931445009305400605
:100B90003E85EFF0EFD68357C400C207C18763D606
:100BA00007020E059305400613052503EFF08FD2CB
:100BB0001D89C98CC204C1802314940061016FF0A7
:100BC000CFCEB24769BF8A0545BF120593054006DF
:100BD00013052503EFF00FD03D89E1BF81C983578D
:100BE000C5000967D98F2316F50082800357C50019
:100BF000F977FD17F98FC5BF93F5F51F2312B500DF
:100C00008280035505006D8D3335A0008280EFF2A0
:100C10002FC9B707002003A50701B7157A009385F0
:100C20000520EFF02FCB1375F50F2389A1809317C3
:100C30005500898F8A073E950E052398A1806FF095
:100C4000CFC6EFF2EFC537F400E05C40AA85F99B10
:100C50005CC003D50181EFF0EFC508C82324040070
:100C60001C4093E717001CC0B7F700E0D843058B82
:100C700075DF9843799B98C36FF02FC3EFF24FC293
:100C80002A84116511118545130505023535930731
:100C900000022310F100371501408D473EC28A85BE
:100CA000E147130505403EC4453422C637440140A0
:100CB000B70708006C00130504803ECA02C8231C55
:100CC00001000D3D854513050480093F71016FF05A
:100CD000CFBDEFF2EFBC7111AE840144635DC4027D
:100CE000B7470140138707803A859305000432C057
:100CF000093FB747014013870780024675D5338700
:100D0000840083050700138507800504C205C1819F
:100D1000E5350246E1B7328511016FF00FB93707AB
:100D20000020130787031C43938681813E956369E6
:100D3000D500938601E663E5A60008C33E85828060
:100D4000FD57EDBF1301C1FD3ED02EC832CA36CCCF
:100D50003ACE97F7FF1F9387E73422C4804326C219
:100D600006C6AA8409C41C4C99E32285D9280C44E0
:100D700014082686228536C0A52EB240224492440D
:100D8000130141028280511122C206C42A84231613
:100D9000B5002317C50023200500232205002324C6
:100DA00005002322050623280500232A0500232CFD
:100DB0000500214681451305C505EFF00FB99717CA
:100DC0000000938707A15CD097170000938767A363
:100DD0001CD4971700009387A7A75CD4971700002F
:100DE000938767AA00D01CD8A240124431018280A8
:100DF00097150000938505E089AA41111386F5FF38
:100E000022C41314160032940A0432940E042EC025
:100E10009305440726C206C6492AAA8409CD8247FB
:100E2000232005003105232CF5FE88C41306840613
:100E30008145EFF08FB1B2402244268592444101B2
:100E400082801C4DBDE3511106C422C297070000E9
:100E5000938747FA1CD597F7FF1F9387E7249C4396
:100E60002324050423260504232805046314F50020
:100E700085471CCD2A841D2848C02285052808C422
:100E800022852D2048C4484001469145ED3D084447
:100E90000546A545CD3D48440946C945ED3585473C
:100EA0001CCCA2401244310182808280411197F70C
:100EB000FF1F9387671F22C4804326C206C61C4CAF
:100EC000AA8499E32285B53F930784048047D843D9
:100ED0007D1763560700984331CF9C43C5BF8316E7
:100EE000C400B1E6C177850723220406232004004D
:100EF00023220400232404005CC423280400232AA2
:100F00000400232C0400214681451305C405EFF09D
:100F1000CFA3232A0402232C04022324040423261F
:100F200004042285B2402244924441018280130489
:100F3000840679BF914526853EC0C135824788C366
:100F400049FDB1479CC00144E9BF111122CA06CC3A
:100F500026C8AA862E8613048504814719E4E24038
:100F60005244C2443E8571018280044458407D173A
:100F7000635407000040DDB703D5C400854563F323
:100F8000A5020395E400FD55630EB5003685A685E0
:100F90003EC63AC436C232C00296B2472247924693
:100FA0000246C98F93848406D9B7411126C293841F
:100FB0003500F19806C622C4A104B14763F9F404D0
:100FC000B14463E8B4042AC0EF00305D1387818028
:100FD00014438247368431E41387C180184309EBF8
:100FE0003E8581453EC0EF00E07B23A6A18082477D
:100FF0003E85A6853EC0EF00E07A7D5782476316A6
:10100000E506314798C33E85EF00505929A0E3DA41
:1010100004FAB1471CC10145B24022449244410147
:1010200082801840058F634F07022D466376E600E5
:1010300018C03A9404C031A058406393860223A498
:10104000E1803E85EF0090551305B400130744007E
:101050006199B307E540E9D33E94098F18C06DBF8D
:10106000D8C2C5B7A2864040BDB7130435007198F9
:10107000E30285FCB305A4403E853EC025277D578D
:101080008247E319E5FAB5BF1C46FD171CC663DAB3
:101090000700184E63C5E700A9476394F5006F0089
:1010A000A07E1C422E851387170018C22380B7002C
:1010B0008280311122C626C406C8AA872E873284B0
:1010C000B304D60063149400014531A8834504009D
:1010D0003A863E853AC23EC0453FFD5605048247EA
:1010E0001247E311D5FEC2403244A244510182802E
:1010F000130181F722C1A6DE9307F10106C32AC0BE
:1011000032C22E8493F487FF11C5184D01E736C60D
:101110000D3BB24617170000130787E46317E40E70
:101120008247C0430357C400218B6302071018484D
:10113000630F070E13070002A38CE40013070003DC
:1011400023AA0400238DE40036CA12471306500276
:101150008346070099C2639AC60E92473303F7404D
:101160006301030202459A863E86A2853AC81AC6E2
:101170008937FD56630ED520D448324342479A96AC
:10118000D4C88346070063850620130317007D57E4
:1011900023A0040023A60400D8C023A40400A38134
:1011A000040423AC0404834503001546171500000E
:1011B000130505DF1AC2EF00B03C12439440130739
:1011C000130051E513F6060109C613060002A381B8
:1011D000C40413F6860009C61306B002A381C40432
:1011E000834503001306A0026380C508D4441A8710
:1011F000814525450346070013031700130606FD26
:101200006379C50AB5C9D4C485A8171700001307A8
:1012100027D76315E4008247804729B717170000D6
:10122000130707D2E310E4F08247C047E5BD02454B
:10123000A28536C6B127B246E30E05EE7D559A402B
:101240000A44F654130181088280050711B7171666
:1012500000001306E6D43306C54005453315C50026
:10126000C98E94C03A8381B7524693054600104216
:101270002ECA63490602D0C4034607009306E00263
:101280006313D606034617009306A002631ED60218
:10129000D246090713864600944232CA63C4060246
:1012A000D4C091A03306C04093E62600D0C494C0B9
:1012B000E1B71397260036970607B306C7008545A2
:1012C0001A870DBFFD56E9BF050723A2040081451B
:1012D000814625450346070013031700130606FD44
:1012E000637CC506D5FD834507000D461715000034
:1012F000130585CB3AC2EF00B028124711CD9716DF
:101300000000938666CA158D93060004B396A60066
:1013100088400507558D88C083450700930717004F
:10132000194617150000130565C83EC2238CB4008A
:10133000EF00102535C517F7FFFF1307A7CC05EB06
:101340009440524793F606108DC211073ACAD84806
:10135000A2473E97D8C8D5BB1397260036970607F5
:10136000B306C70085451A87B5B72107C5B702453B
:10137000580897060000938606D42286A685970013
:101380000000E70000002AC4A2477D57E391E7FC74
:101390000357C40013770704E31207EAC84845B5AA
:1013A00002455808970600009386E6D02286A68557
:1013B000052AD1BF011126CA3283B68490459449CB
:1013C00022CC06CE2A84AE8763D3C600B286232001
:1013D000D30003C6370401C685062320D3009443F7
:1013E00093F6060291C68326030089062320D300C4
:1013F00083A207009383970193F26200638302063E
:10140000904383C6370413760602B336D00041EA10
:1014100013863704A68522851AC43EC23AC00297B5
:10142000FD566308D506924722431145944303268F
:101430000300CC47998A014302476397A600338390
:10144000C5406353030001439447904B6354D60057
:10145000918E36938142E9076312530601451DA818
:101460008502D44703260300918EE3DBD2F885463C
:101470001E86A68522851AC83EC616C41EC23AC05C
:101480000297FD5602479243A242B2474243E319F4
:10149000D5FC7D55F2406244D24405618280B3851B
:1014A000D70013050003A381A50483C55704138641
:1014B00016003E968906A301B60499BF85463E866E
:1014C000A685228516C61AC43EC23AC00297FD56AA
:1014D000E301D5FCB2422243924785020247ADBFE9
:1014E000130141FD22D206D426D032C203C68501A3
:1014F00036C42AC0930690062E8493823504630D69
:10150000D60263E2C606930680056302D61A63ED2F
:10151000C600630B062293063004630DD60A9304BB
:1015200024042301C404C1A0930630066304D60A30
:1015300093064006E315D6FE1440084313F606084A
:10154000930545005DC214410CC363D80600130720
:10155000D002B306D040A301E4041716000013061E
:1015600066A5294765A893060007630ED61663E5AE
:10157000C6029306E0066305D61A9306F006E3104A
:10158000D6FA0C40144313F305081385460063068E
:10159000030608C3944285A893065007E303D6FECA
:1015A000930680076305D61493063007E319D6F631
:1015B00014431386460010C38442D04181452685DA
:1015C000EF00007C19C1058D48C0584018C8A30120
:1015D000040475A81443930424041386460010C31E
:1015E00098422301E4040547D5B713F606041441D5
:1015F0000CC321DEC206C18689BF93F5050408C36A
:10160000D1D983D606001307F0066303E610171638
:1016100000001306269A2947A30104044C400CC479
:1016200063C5050008406D9908C099E296848DCD88
:101630009684BA85368516CC32CA3AC836C6EFE0EB
:101640003FAC52464247B246329583450500FD14F1
:1016500036852380B400BA85EFE0DFA7B246424763
:101660005246E24263FCE60AA146631ED7001840D8
:10167000058B11CB544018486347D700130700036C
:10168000A38FE4FEFD14B382924023285400224726
:10169000924602457008A285313B7D57631AE50AE0
:1016A0007D55A250125482541301C1028280A3823C
:1016B000C504171600001306E68F0C40084313F309
:1016C000050814411105630D030208C313F7150043
:1016D00001C793E505020CC041479DFE0C4093F500
:1016E000F5FD0CC015BF944193E6060294C1930624
:1016F0008007A302D404171600001306E68C75BFFA
:1017000013F3050408C3E30303FCC206C1827DBFD3
:10171000171600001306068A2147FDBDAA8611BFD1
:1017200090411443CC4913730608138546006306A1
:10173000030008C398420CC301A808C3137606042B
:10174000984275DA2310B70023280400968481B7E5
:10175000144892450245A247268682977D57E301A9
:10176000E5F41840098B1DEB72474844E35BE5F252
:101770003A8505BF92450245A24785461A863AC872
:101780001AC68297FD56E30DD5F04247324305074E
:1017900054447246918EE34FD7FCF9B701471303C7
:1017A0009401FDB7511122C22A842E8523AA0180FB
:1017B00006C4EFF0CFD6FD576317F500938741813C
:1017C0009C4391C31CC0A24012443101828051113C
:1017D00022C22E848395E50006C4852D6349050049
:1017E0007C48AA977CC8A24012443101828083576A
:1017F000C4007D777D17F98F2316F400EDB783D7EA
:10180000C500311122C626C406C893F70710AA8462
:101810002E843283B68291CB8395E50036C232C0E6
:10182000894601460D29924202438357C4007D77C1
:101830007D17F98F2316F4008315E4003244C2406B
:101840002685A24496861A86510121A2511122C2F0
:101850002E848395E50006C4FD2EFD570357C40072
:10186000631BF500FD77FD17F98F2316F400A240E6
:101870001244310182808567D98F2316F40068C82D
:10188000FDB78395E50039A4311122C626C406C8E8
:10189000AA87AE84328419C5184D09E72AC0EFF033
:1018A0004FDA8247170700001307876B631BE406B4
:1018B000C043184C18C40357C400218B59C318489F
:1018C00049C31848084093F6F40F93F4F40F198DA8
:1018D0005848634AE5003E85A28536C23EC0092EBF
:1018E000824792462DE5184405057D1718C4184017
:1018F0001306170010C02300D70058486309A7003B
:101900000357C400058B01CB29476396E400A285E9
:101910003E85F92C0DEDC24032442685A24451018A
:101920008280170700001307A7656314E40080474F
:1019300049B7170700001307A760E31CE4F6C04788
:101940008DBF3E85A2853EC0252882473DD9FD54E6
:10195000D9B7511122C22A842E85B285368623AA90
:10196000018006C4EFF0EFB6FD576317F5009387CB
:1019700041819C4391C31CC0A2401244310182802A
:10198000411197E7FF1F9387E77126C2844322C462
:1019900006C6AA862E8481C89C4C91E72AC026855B
:1019A000EFF02FCA8246970700009387675B631AA0
:1019B000F402C0400317C40093170701C18313F654
:1019C000870035EE13F607010DEEA5479CC213679D
:1019D00007042316E4007D55B2402244924441019D
:1019E0008280970700009387A7596314F40080440E
:1019F000D1B7970700009387A754E31DF4FAC044BA
:101A000055BF918B9DC74C5899C993074404638671
:101A1000F500368536C061268246232A04028357A4
:101A2000C4002322040093F7B7FD2316F4001C48DA
:101A30001CC08357C40093E787002316F4001C489A
:101A400081EF8357C4001307002093F707286385AD
:101A5000E700A285368579248357C40013F7170061
:101A600005C75C4823240400B307F0401CCC1C4885
:101A70000145BDF38317C40013F7070831DF93E76F
:101A800007042316F40081BF898B014791E358486E
:101A900018C4F1BF511122C22A842E8523AA0180C5
:101AA00006C41D21FD576317F500938741819C43B0
:101AB00091C31CC0A24012443101828083D6C5006C
:101AC000311122C606C826C413F78600AA872E84C1
:101AD00069EFD841634BE000B8416348E00001453D
:101AE000C2403244A2445101828058546DDB844389
:101AF0001396360123A00700635E0606704803575D
:101B0000C400118B19C75840198E585819C3384052
:101B1000198E58540C5081463E853EC002977D5721
:101B20008356C4008247631DE50090437547636890
:101B3000C7063707402005073357C700058B25C365
:101B400018482322040018C0139736016358070071
:101B50007D576314E500984311E368C84C5884C36B
:101B6000BDDD130744046384E5003E850D2C232A64
:101B70000402B5B70C5001463E8585463EC002972B
:101B80007D572A868247E31CE5F698432DDBF54610
:101B90006305D700D9466313D70484C389B793E696
:101BA00006042316D4007D5525BF98490DDB8441DA
:101BB0008D8A98C1998C014691E2D04910C4E350B6
:101BC00090F2032384020C503A863E85A6863AC2E0
:101BD0003EC00293824712476349A0008357C40066
:101BE00093E707042316F4007DBF2A97898CC1BFB1
:101BF0009C49A5C3411122C406C62A8419C51C4D9F
:101C000089E72EC0EFF0EFA3824597070000938786
:101C10002735639BF5004C408397C50095C7228507
:101C20002244B240410159BD9707000093874735D0
:101C30006394F5000C44CDB79707000093874730B5
:101C4000E39CF5FC4C44C9BFB2402244014541012C
:101C5000828001458280511122C22A842E85B2855C
:101C6000368623AA018006C45124FD576317F50068
:101C7000938741819C4391C31CC0A240124431010F
:101C80008280AE878395E5005971A6D286D6A2D40C
:101C9000B28463DC050083D7C70023A0060093F756
:101CA000070885EB930700403DA01304F1006198FD
:101CB000228636C23EC0C12282479246E34D05FCD1
:101CC0005840BD67F98F7977BA9793B717009CC2D0
:101CD000D1BF93070004B65026549CC001459654CA
:101CE0006561828003D7C500211122C806CA26C6B5
:101CF000098B2E8401CF930774041CC01CC8854730
:101D00005CC8D2404244B244610182803400500039
:101D1000AA84853F92452AC02685EFF00FA901EDE0
:101D20008317C40013F7072069FFF19B93E727008F
:101D30002316F400C9B717F7FFFF1307A70B98D4B2
:101D40000357C40008C008C8136707082316E40037
:101D5000124758C8224709CF8315E40026858922F7
:101D600001C98357C400F19B93E717002316F400C1
:101D70008357C4000247B364F7002316940051B799
:101D800093F5F50F2A966314C500014582808347B9
:101D90000500E38DB7FE0505FDB782808280CDC5C5
:101DA00083A7C5FF511122C206C426C01384C5FFF4
:101DB00063D307003E94AA84CD3797E7FF1F93872C
:101DC000E72E9C4389EF2322040097E7FF1F23AFF0
:101DD000872C1244A240268582443101C1B7637E1C
:101DE000F40014403307D4006396E7009843DC43C3
:101DF000369718C05CC0D1BFBA87D84319C3E37DFA
:101E0000E4FE94433386D700631F86001040B296E9
:101E100094C33386D700E31EC7FA10435843B296E3
:101E200094C3D8C37DB76375C400B1479CC055B790
:101E30001040B306C4006316D70014435843B2964B
:101E400014C058C0C0C371B78280511122C22A8405
:101E50002E85B285368623AA018006C47128FD57D7
:101E60006317F500938741819C4391C31CC0A24036
:101E7000124431018280511122C22A842E85B285FA
:101E800023AA018006C4B920FD576317F500938784
:101E900041819C4391C31CC0A24012443101828005
:101EA000511122C22A842E8523AA018006C40D283E
:101EB000FD576317F500938741819C4391C31CC074
:101EC000A2401244310182809307800523AAF18049
:101ED0007D5582809307800523AAF1807D558280FD
:101EE0009307800523AAF18001458280930780052E
:101EF00023AAF1807D5582809307800523AAF18073
:101F00007D55828053797374656D436C6B3A2025DF
:101F1000640D0A004368697049443A2025303878D6
:101F20000D0A0000583A2025642C20593A202564D7
:101F30002C205A3A2025640D0A0000000000000001
:101F40000000000000000000000000000000000091
:101F50000000000000000000000000000000000081
:101F60000000000000000000000000000000000071
:101F70000000000000000000000000000000000061
:101F80000000000000000000000000000000000051
:101F9000000000000000000000000000232D302B96
:101FA00020000000686C4C006566674546470000ED
:101FB000303132333435363738394142434445467F
:101FC0000000000030313233343536373839616241
:081FD000636465660000000077
:101FD80001020304050607080102030405060708B1
:101FE800006CDC020204060804080C100810182013
:101FF80010203040204060800102030405060708D5
:102008000102030405060708B800002000000000CC
:102018005C1F00007C1F00003C1F00000000000047
:1020280000000000000000000000000000000000A8
:102038000000000000000000000000000000000098
:102048000000000000000000000000000000000088
:102058000000000000000000000000000000000078
:102068000000000000000000000000000000000068
:082078003C0000203C000020A8
:00000001FF
