:100000006F00E04E000000004A0100004C010000BB
:1000100000000000000000000000000000000000E0
:1000200000000000000000000000000000000000D0
:10003000EC04000000000000EC04000000000000E0
:10004000EC040000EC040000EC040000EC040000F0
:10005000EC040000EC040000EC040000EC040000E0
:10006000EC040000EC040000EC040000EC040000D0
:10007000EC040000EC040000EC040000EC040000C0
:10008000EC040000EC040000EC040000EC040000B0
:10009000EC040000EC040000EC0400000000000090
:1000A000511126C022C206C4828282441244A24058
:1000B000310182802A86014593F6150091C232955E
:1000C00085810606F5F9828000000000634E050276
:1000D00063C305042E86AA857D5515C285466378BF
:1000E000B6006356C00006068606E36CB6FE014500
:1000F00063E4C500918D558D85820582F5FA828075
:100100008682C93F2E8582823305A04063D70500D1
:10011000B305B040C1B7B305B0408682653F330533
:10012000A0408282868263C70500634905005D376F
:100130002E858282B305B040E35B05FE3305A04007
:10014000513F3305B0408282000001A001A0EFF2D0
:100150003FF551118545414502C002C202C4FD2947
:10016000C1472310F100C1473EC48A858D4737152A
:1001700001403EC2FD2E31010DBFB717014041477E
:1001800098CB29C501000100010001000100010018
:100190000100010001000100010001000100010057
:1001A0000100010001000100010001000100010047
:1001B0000100010001000100010001000100010037
:1001C0000100010001000100D8CB82800100010084
:1001D0000100010001000100010001000100010017
:1001E0000100010001000100D8CB01000100010065
:1001F00001000100010001000100010001000100F7
:1002000001000100010001000100010001000100E6
:1002100001008280EFF2DFE861112A84B2849D47F9
:1002200033D5F54005893EC22EC0813F92477D57A8
:100230008245FD17E396E7FE9D473355F440058957
:100240003EC0253F82477D57FD17E398E7FE1D44DA
:1002500033D58440058915377D14FD57E31AF4FE24
:100260002101A1B5EFF2DFE3034625008345150028
:100270000345050045371305200305293DB5EFF279
:100280003FE2130400100146814501457D145937B2
:100290007DF813052003112909BDB7060020930737
:1002A00040051387C60063E3A70293171500AA97BA
:1002B0002300F700931725001D8D9307F5FFA3007A
:1002C000F700230107001385C60082809307900A78
:1002D00063E5A7029307B5FA93F7F70F1396270084
:1002E0003386C7407D16139517002300C700A3006F
:1002F0000700AA972301F700F9B79307650593F75D
:10030000F70F13961700139527003E96898F230049
:100310000700A300C700FD17F1BFEFF27FD841111E
:100320002AC22EC00144B7040020938784000147ED
:100330001DA88245131587003EC63AC4413B22954D
:100340001375F50F993F83460500B2472247238076
:10035000D7008346150005078D07238FD7FE8346F8
:100360002500A38FD7FE024693160701C182E3E260
:10037000C6FC13858400FD3512459D2693071400A5
:1003800013940701418093070010E310F4FA410130
:1003900029BBEFF2FFD0D5245D3B15459126C5352D
:1003A0003705002013058500753D1305800C0D2EC3
:1003B0008545130520039537E5BFEFF27FCE37144F
:1003C00002401C403707FFFC611193E717001CC077
:1003D0005C404145F98F5CC01C403707F7FE7D1734
:1003E000F98F1CC01C403707FCFF7D17F98F1CC01C
:1003F0005C4041777D17F98F5CC0B7079F001CC434
:10040000A9241C4C3706020093E707021CCCB7173F
:10041000014003A70740938607401377F7F023A016
:10042000E74003A707401367070823A0E740894771
:100430009CCA02C002C21C4C37070140A16693E768
:1004400017001CCC5C43D58F5CC31C404167B716BA
:100450000240D98F1CC009679C42F18F3EC282477F
:1004600085073EC0924781E78247E397E7FEB717CB
:1004700002409C431397E7006358070685473EC236
:10048000124785476310F706B72702409843C176A5
:10049000FD16719B98C398431367170098C3B7174D
:1004A0000240D843D8C3D843758FD8C3D843C16658
:1004B000558FD8C39843B7060001558F98C398430A
:1004C00093166700E3DD06FED843B7160240719B22
:1004D000D8C3D84313672700D8C32147DC42B18B68
:1004E000E39EE7FE2101D1B602C259BF01A09701E8
:1004F00000209381A131138181FF1305807197053D
:100500000020938525B017060020130626B063FA55
:10051000C5008322050023A0550011059105E3EADB
:10052000C5FE17050020130565AE9385C18063776E
:10053000B500232005001105E36DB5FEB7220000CC
:1005400093820288739002308D42739042809702AA
:100550000000938222AB93E2320073905230EFF0AE
:10056000DFE597020000938202E373901234730078
:1005700020309C45611122C226C013F7070113F3F6
:10058000F70001C7D8413363E30003D605001377B2
:10059000F60F29C783230500014713048002930443
:1005A00080048546B395E600B376B6006392D50223
:1005B00093122700BD46B396560093C6F6FFB3F3D9
:1005C0007600B3125300B3E37200639787064CC9F9
:1005D0000507A146E317D7FC232075001307F00F8A
:1005E0006378C70483234500A14613048002930463
:1005F00080040547B312D700337756006394E202B4
:10060000139726000117BD45B395E50093C5F5FF87
:10061000B3F375003317E300B36377006392870287
:10062000232A550085064147E395E6FC2322750001
:100630001244824421018280E39C97F80CC949BF8F
:10064000E39297FE23285500F1BF371702401C4361
:100650000E0593F777F05D8D08C3828099C5371733
:1006600002401C4F5D8D08CF8280B7170240984F23
:100670001345F5FF798D88CF8280EFF27FA2B7070F
:10068000002003A50700B7157A009385052099344B
:100690001375F50F2385A18093175500898F8A075D
:1006A0003E950E052394A18009B4EFF27F9F37F4A5
:1006B00000E05C40AA85F99B5CC003C5A180DD3ADF
:1006C00008C8232404001C4093E717001CC0B7F798
:1006D00000E0D843058B75DF9843799B98C3F1B24E
:1006E000EFF21F9C37F400E05C40AA85F99B5CC0E8
:1006F00003D58180C13208C8232404001C4093E73D
:1007000017001CC0B7F700E0D843058B75DF98438E
:08071000799B98C359BA00005F
:08071800006CDC02000000008F
:00000001FF
