:100000006F00A041000000004A0100004C01000008
:1000100000000000000000000000000000000000E0
:1000200000000000000000000000000000000000D0
:100030001804000000000000180400000000000088
:100040001804000018040000180400001804000040
:100050001804000018040000180400001804000030
:100060001804000018040000180400001804000020
:100070001804000018040000180400001804000010
:100080001804000018040000180400001804000000
:10009000180400001804000018040000000000000C
:1000A000511126C022C206C4828282441244A24058
:1000B000310182802A86014593F6150091C232955E
:1000C00085810606F5F9828000000000634E050276
:1000D00063C305042E86AA857D5515C285466378BF
:1000E000B6006356C00006068606E36CB6FE014500
:1000F00063E4C500918D558D85820582F5FA828075
:100100008682C93F2E8582823305A04063D70500D1
:10011000B305B040C1B7B305B0408682653F330533
:10012000A0408282868263C70500634905005D376F
:100130002E858282B305B040E35B05FE3305A04007
:10014000513F3305B0408282000001A001A0EFF2D0
:100150003FF5AA853775DC021111130505C002C0F1
:1001600002C22314010002C602C802CA02CCB93F6F
:100170007D15131405010565854513050580392195
:10018000B73401408A85138504C041802312810061
:100190002313010002C01129C16793870706058058
:1001A0006C00138504C03EC623198100231A010088
:1001B000B929138504C08545E5298545138504C003
:1001C000D1297101DDB5EFF2BFED85659385057726
:1001D000D535FD577D156313F500C1BD0100DDBFA9
:1001E000EFF21FEC05641304449C8D44228585378F
:1001F00013054006C93F0145993F13054006FD140C
:10020000D937EDF48D44228599371305C012653F27
:100210000145353F13054006FD147537EDF48D4457
:100220002285353713054006793F01450D37130503
:100230004006FD14493FEDF41305803E693775B75C
:10024000EFF21FE6511185451305000202C002C2FC
:1002500002C42D2E91472310F10037150140E147CC
:100260003EC48A858D47130505403EC21D2C3101D1
:100270002DBDEFF2FFE2252AE1379D37EFF25FE275
:10028000371402401C403707FFFC611193E7170049
:100290001CC05C404145F98F5CC01C403707F7FE2D
:1002A0007D17F98F1CC01C403707FCFF7D17F98FA5
:1002B0001CC05C4041777D17F98F5CC0B7079F0079
:1002C0001CC4652C1C4C3706020093E707021CCCAB
:1002D000B717014003A70740938607401377F7F04D
:1002E00023A0E74003A707401367070823A0E740C0
:1002F00089479CCA02C002C21C4C37070140A16654
:1003000093E717001CCC5C43D58F5CC31C4041674E
:10031000B7160240D98F1CC009679C42F18F3EC2BC
:10032000824785073EC0924781E78247E397E7FE11
:10033000B71702409C431397E700635807068547A9
:100340003EC2124785476310F706B727024098431D
:10035000C176FD16719B98C398431367170098C325
:10036000B7170240D843D8C3D843758FD8C3D843F2
:10037000C166558FD8C39843B7060001558F98C3FF
:10038000984393166700E3DD06FED843B716024094
:10039000719BD8C3D84313672700D8C32147DC42D9
:1003A000B18BE39EE7FE210109B302C259BFEFF210
:1003B0003FCF371702405C43370400209146B18B92
:1003C000130404016385D700A1466381D704B737BE
:1003D0006E01938707601CC0B7160240DC420840DC
:1003E000918313F7F700B707002093870700BA97A8
:1003F00083C50700DC4293F5F50F93F707083357E1
:10040000B50099E3C1392A8718C045B15C43B77775
:10041000DC02938707C0C1B701A097010020938138
:10042000E13F138181FE1305806C970500209385C1
:1004300065BD17060020130666BE63FAC500832259
:10044000050023A0550011059105E3EAC5FE170537
:1004500000201305A5BC97050020938525BC637774
:10046000B500232005001105E36DB5FEB72200009D
:1004700093820288739002308D427390428097027B
:100480000000938222B893E2320073905230EFF072
:10049000FFDE97020000938202DE73901234730035
:1004A00020309C45611122C226C013F7070113F3C7
:1004B000F70001C7D8413363E30003D60500137783
:1004C000F60F29C783230500014713048002930414
:1004D00080048546B395E600B376B6006392D502F4
:1004E00093122700BD46B396560093C6F6FFB3F3AA
:1004F0007600B3125300B3E37200639787064CC9CA
:100500000507A146E317D7FC232075001307F00F5A
:100510006378C70483234500A14613048002930433
:1005200080040547B312D700337756006394E20284
:10053000139726000117BD45B395E50093C5F5FF58
:10054000B3F375003317E300B36377006392870258
:10055000232A550085064147E395E6FC23227500D2
:100560001244824421018280E39C97F80CC949BF60
:10057000E39297FE23285500F1BF371702401C4332
:100580000E0593F777F05D8D08C3828099C5371704
:1005900002401C4F5D8D08CF8280B7170240984FF4
:1005A0001345F5FF798D88CF828083570500373753
:1005B0000140130707C0C207C1836306E500370780
:1005C00000406317E50003D7250093F7F7F8D98FAC
:1005D00003D7650093F7F7CFC207C183D98F2310E4
:1005E000F50083D745002316F50283D705002314B1
:1005F000F502B7370140938707C06316F50083C73C
:1006000085002318F5028547231AF5008280835759
:10061000050203D6050003D32500C207C183F99B59
:10062000C207C1832310F502835705028356450094
:1006300003578501C207C183420741831377C7F877
:10064000518F03D68500F59BC20633666600D18FB5
:1006500037360140130606C0C1826313C50203D6B4
:10066000A500DD9B03D3E500D18F03D64500ED9BAC
:1006700093F6F6CFD18F03D6C50033666600D18ED0
:100680002312D500231CE50003D7650058D9231099
:10069000F50282808357050091C593E71700231068
:1006A000F5008280C207C183F99BC207C183C5BF21
:1006B0008357450491C52167D98F2312F5048280A1
:0806C000C607C583DDBF000081
:1006C80001020304050607080102030405060708DA
:0806D800006CDC0200000000D0
:00000001FF
